{
  "_format": "hh-sol-artifact-1",
  "contractName": "RandomHouseAssignment",
  "sourceName": "contracts/RandomHouseAssignment.sol",
  "abi": [
    {
      "inputs": [
        {
          "internalType": "address",
          "name": "_nftContract",
          "type": "address"
        },
        {
          "internalType": "address",
          "name": "vrfCoordinatorV2Address",
          "type": "address"
        },
        {
          "internalType": "uint256",
          "name": "subId",
          "type": "uint256"
        },
        {
          "internalType": "bytes32",
          "name": "keyHash",
          "type": "bytes32"
        },
        {
          "internalType": "uint32",
          "name": "callbackGasLimit",
          "type": "uint32"
        }
      ],
      "stateMutability": "nonpayable",
      "type": "constructor"
    },
    {
      "inputs": [
        {
          "internalType": "address",
          "name": "have",
          "type": "address"
        },
        {
          "internalType": "address",
          "name": "want",
          "type": "address"
        }
      ],
      "name": "OnlyCoordinatorCanFulfill",
      "type": "error"
    },
    {
      "anonymous": false,
      "inputs": [
        {
          "indexed": true,
          "internalType": "uint256",
          "name": "requestId",
          "type": "uint256"
        },
        {
          "indexed": false,
          "internalType": "address",
          "name": "requester",
          "type": "address"
        }
      ],
      "name": "NftRequested",
      "type": "event"
    },
    {
      "inputs": [],
      "name": "nftContract",
      "outputs": [
        {
          "internalType": "contract HogwartsNFT",
          "name": "",
          "type": "address"
        }
      ],
      "stateMutability": "view",
      "type": "function"
    },
    {
      "inputs": [
        {
          "internalType": "uint256",
          "name": "requestId",
          "type": "uint256"
        },
        {
          "internalType": "uint256[]",
          "name": "randomWords",
          "type": "uint256[]"
        }
      ],
      "name": "rawFulfillRandomWords",
      "outputs": [],
      "stateMutability": "nonpayable",
      "type": "function"
    },
    {
      "inputs": [
        {
          "internalType": "string",
          "name": "name",
          "type": "string"
        }
      ],
      "name": "requestNFT",
      "outputs": [],
      "stateMutability": "nonpayable",
      "type": "function"
    }
  ],
  "bytecode": "0x60a060405234801561001057600080fd5b5060405161083338038061083383398101604081905261002f916100b1565b606084901b6001600160601b031916608052600080546001600160a01b03199081166001600160a01b039788161790915560018054969095169516949094179092556002556003556004805463ffffffff191663ffffffff909216919091179055610115565b80516001600160a01b03811681146100ac57600080fd5b919050565b600080600080600060a086880312156100c957600080fd5b6100d286610095565b94506100e060208701610095565b93506040860151925060608601519150608086015163ffffffff8116811461010757600080fd5b809150509295509295909350565b60805160601c6106fb6101386000396000818160a8015260ea01526106fb6000f3fe608060405234801561001057600080fd5b50600436106100415760003560e01c80631fe543e314610046578063adc50c341461005b578063d56d229d1461006e575b600080fd5b610059610054366004610486565b61009d565b005b610059610069366004610538565b610129565b600054610081906001600160a01b031681565b6040516001600160a01b03909116815260200160405180910390f35b336001600160a01b037f0000000000000000000000000000000000000000000000000000000000000000161461011b5760405163073e64fd60e21b81523360048201526001600160a01b037f000000000000000000000000000000000000000000000000000000000000000016602482015260440160405180910390fd5b610125828261025c565b5050565b6001805460038054600254600480546040516305d3b1d360e41b81529182019390935267ffffffffffffffff9091166024820152604481019290925263ffffffff16606482015260848101929092526000916001600160a01b0390911690635d3b1d309060a401602060405180830381600087803b1580156101aa57600080fd5b505af11580156101be573d6000803e3d6000fd5b505050506040513d601f19601f820116820180604052508101906101e291906105cd565b600081815260056020908152604080832080546001600160a01b0319163390811790915583526006825290912084519293506102229290918501906103a6565b5060405133815281907ff873236e6cc0ecc5be1a9a35c95ee5b8d1ac4cc7bfef0cc5060391d6cc98e26b9060200160405180910390a25050565b6000828152600560209081526040808320546001600160a01b031680845260069092528220805491929161028f906105e6565b80601f01602080910402602001604051908101604052809291908181526020018280546102bb906105e6565b80156103085780601f106102dd57610100808354040283529160200191610308565b820191906000526020600020905b8154815290600101906020018083116102eb57829003601f168201915b50505050509050600060048460008151811061032657610326610621565b60200260200101516103389190610637565b600054604051630f2bb48960e11b81529192506001600160a01b031690631e5769129061036d90869085908790600401610659565b600060405180830381600087803b15801561038757600080fd5b505af115801561039b573d6000803e3d6000fd5b505050505050505050565b8280546103b2906105e6565b90600052602060002090601f0160209004810192826103d4576000855561041a565b82601f106103ed57805160ff191683800117855561041a565b8280016001018555821561041a579182015b8281111561041a5782518255916020019190600101906103ff565b5061042692915061042a565b5090565b5b80821115610426576000815560010161042b565b634e487b7160e01b600052604160045260246000fd5b604051601f8201601f1916810167ffffffffffffffff8111828210171561047e5761047e61043f565b604052919050565b6000806040838503121561049957600080fd5b8235915060208084013567ffffffffffffffff808211156104b957600080fd5b818601915086601f8301126104cd57600080fd5b8135818111156104df576104df61043f565b8060051b91506104f0848301610455565b818152918301840191848101908984111561050a57600080fd5b938501935b838510156105285784358252938501939085019061050f565b8096505050505050509250929050565b6000602080838503121561054b57600080fd5b823567ffffffffffffffff8082111561056357600080fd5b818501915085601f83011261057757600080fd5b8135818111156105895761058961043f565b61059b601f8201601f19168501610455565b915080825286848285010111156105b157600080fd5b8084840185840137600090820190930192909252509392505050565b6000602082840312156105df57600080fd5b5051919050565b600181811c908216806105fa57607f821691505b6020821081141561061b57634e487b7160e01b600052602260045260246000fd5b50919050565b634e487b7160e01b600052603260045260246000fd5b60008261065457634e487b7160e01b600052601260045260246000fd5b500690565b60018060a01b038416815260006020848184015260606040840152835180606085015260005b8181101561069b5785810183015185820160800152820161067f565b818111156106ad576000608083870101525b50601f01601f1916929092016080019594505050505056fea264697066735822122030a648ec02eb1f079b9a330a789a6c8e54190450caf9951e69bc1bed788dce9d64736f6c63430008080033",
  "linkReferences": {},
  "deployedLinkReferences": {}
}